:10110000543A25660A0073706565643A25640A00DE
:100FC800024F0008014E00014919C189C18AC18B2D
:0A0FD800C10CC10D044A0000000026
:100C2100E4F525F524F523F522F529F528F527F531
:100C310026F52AF594F593F592F591F596F595F546
:100C4100B2F5B1F5B4F5B3D2921210C912112E1248
:100C510010A0A20992001211107B007A00792212D1
:100C610010DC300B4FD20A852529852428852327BE
:100C7100852226E4FFFEFDFCAB29AA28A927A82688
:100C81001202245017C209AF29AE28AD27AC261293
:100C9100029D8F298E288D278C268002D209AC5087
:100CA100E41202B8AB29AA28A927A82612011E120C
:100CB10002EC8F4E300F05120B29C20F200D06E4F6
:100CC100FFFE120D0A1210EE784A120640E47BC8AC
:100CD100FAF9F8C312061570807BFF7A1179008545
:100CE100253385243285233185223012071C7BFF71
:100CF1007A117906753000854E3112071CE4F54DE5
:090D0100F54CF54BF54A020C5AC1
:050FE200011F00C10F1A
:1010C900759850758920758BFD758DFDD28ED2ACC2
:0310D900D2AF2271
:03002300020F9534
:100F9500C0E0C0D075D00830981D200F18741425F6
:100FA5001FF8A699E514B4A502051FE51FB40605AB
:100FB500D20F751F00C298309904C299C20ED0D0C5
:030FC500D0E03247
:09001A00200EFDEFD20EF5992233
:10107B008B1C8A1D891EAB1CAA1DA91E1205AF60F5
:10108B0013051EE51E7002051D14F91205AFFF12A4
:05109B00001A80E222B2
:06112300AE0712001A22C3
:03112E00020003B9
:1010DC008B2B8A2C892D120DADAB2BAA2CA92D0292
:0210EC000626D6
:1010A000E4F5D8F5E9F5F9F5D975EA8075FA8075B2
:0510B000DA42D2DE224D
:09111A00C374FF9FF5EAF5FA2207
:0A111000A20092A4A200B392A5224F
:05112900C2A4C2A522D2
:1010EE00A2099200121110200A03121129AF4E020A
:0210FE00111AC5
:100ECD0072756E0D0A0073746F700D0A00506F739A
:100EDD0069746976650D0A004E656761746976659A
:100EED000D0A0073706565642075700D0A007370CE
:100EFD0065656420646F776E0D0A007370656564B7
:100F0D00207365740D0A004B50207365740D0A0033
:100FE70008140000000000000000021000000212B8
:020FF7000000F8
:100B2900E51464A56003020C1CE515645A60030210
:100B39000C1CE51664046003020C1CE51964AA6028
:100B490003020C1CD20DC20BE51764B17027E5181E
:100B590064B570210511E5117002051030E00BC272
:100B69000A7BFF7A0E79CD020C17D20A7BFF7A0E27
:100B790079D3020C17E51764B27025E51864B670CD
:100B89001F0513E5137002051230E00AD2097BFF35
:100B99007A0E79DA8078C2097BFF7A0E79E5806E60
:100BA900E517B4B323E518B4B71E7BFF7A0E79F0C5
:100BB90012071CC374FF954EC394195004754EFF58
:100BC90022E549254EF54E22E517B4B420E518B4BF
:100BD900B81BE54EC394195005E4F54E8007C3E5EB
:100BE9004E9549F54E7BFF7A0E79FB8021E517B4C6
:100BF900B50B85184E7BFF7A0F79088011E517B47C
:100C0900B60F754F008518507BFF7A0F79140207CC
:070C19001C8000C20DD20B8C
:010C200022B1
:100F5E006B65792072756E2073746F700D0A006B5D
:100F6E006579206469720D0A006B657920496E639C
:100F7E000D0A006B6579204465630D0A006B657977
:070F8E00206F75740D0A00CD
:100D0A008E2B8F2C30A00F30B40C30B50930A106D1
:100D1A00309703020DACC20BD20C7F321210B520F1
:100D2A00A0107BFF7A0F795E12071CB20A20A0720C
:100D3A0080FB20B410B2097BFF7A0F796D12071C71
:100D4A0020B45F80FB20B5237BFF7A0F79771207E7
:100D5A001CC374FF954EC394195005754EFF800647
:100D6A00E549254EF54E20B53980FB20A1217BFFB0
:100D7A007A0F798112071CE54EC394195005E4F5E0
:100D8A004E8007C3E54E9549F54E20A11580FB20FC
:100D9A0097107BFF7A0F798B12071CD20BC20C308B
:030DAA0097FD2290
:0C0F1D00D2957B017A007D017C007F01F1
:060F29008C368D37A9078C
:100F2F00E4FFEFC3995027E4FEEEC39537E536642F
:100F3F0080F87480985014E4FDEDC39BEA6480F848
:0E0F4F0074809850030D80F10E80DE0F80D468
:010F5D002271
:10102A00E4F534F535753408C29500E535C313F592
:10103A0035120F1D3095034335807B08120F211599
:0A104A0034E534D3940050E0AF35D4
:011054002279
:020FFA008F3432
:100FFC00E4F535753508C29500E5341392957B0FF1
:10100C00120F21D295E534C313F5347B017D017F9A
:0D101C0001120F291535E535D3940050D988
:0110290022A4
:10000300120F1DC2957B3F7D017F06120F29D295EA
:070013007D017F05020F29AA
:100DAD00E4F52EFFF582F583F533F532F531F530A7
:100DBD001200037FCC120FFA7F44120FFA120003B8
:100DCD007FCC120FFA7FBE120FFA12102A8F2E123D
:100DDD00102AEFD39407400B6307FF632EFFE4F552
:100DED002F8003752F017583008F82E58275820038
:100DFD00F583E582252EF582E43583F583FEAF82FA
:100E0D00AD07FCE41202B3E4FBFA7980783D1201E0
:100E1D001EE4FBFA794078C012002D8F338E328D8F
:100E2D00318C30E52F600122AF33AE32AD31AC30B5
:030E3D0012029D01
:010E4000228F
:03113100DFFE22BC
:1010B500AE071FEE600D0000007E0B7DBEDDFEDE7F
:0310C500FC80EDBF
:0110C8002205
:10105500E4FDFCC3ED9FEE6480F8EC6480985015C8
:10106500E4FBFA0BBB00010AEB640A4A70F50DBDFF
:0510750000010C80DE0B
:01107A002253
:10002600020358E86480F8E933E83360110460F0AD
:10003600ED33EC337009E8FCE9FDEAFEEBFF220440
:1000460060DED3EB9FEA9EE99DE8C2E78CF0C2F73B
:1000560095F0400CE8CCF8E9CDF9EACEFAEBCFFB07
:1000660012032385D0F05804700320D5B3E804703A
:10007600075002B2D502036292D5EC0460F7E4CCD5
:10008600C0E0C398F8603B94186008400DD0E0FBD0
:1000960002033AE4FBFAC9FC8028E830E406E4C926
:1000A600FBE4CAFCE830E305E4C9CACBFCE8540724
:1000B6006010F8C3E913F9EA13FAEB13FBEC13FC2F
:1000C600D8F130F52FC3E49CFCEF9BFFEE9AFEEDD2
:1000D60099FDD0E0FBEF4E4D4C701222DB0302037C
:1000E6005FEC2CFCEF33FFEE33FEED33FDED30E736
:1000F600EB02033AEF2BFFEE3AFEED39FDD0E0FBC3
:1001060050130BBB0003020362ED13FDEE13FEEF6B
:0801160013FFEC13FC02033A95
:10011E00EC4D6011E8497017ED33EC3304600DE4DB
:10012E00FCFFFEFD22E933E8330470F80203581297
:10013E00032358046009E4CC248150062850090298
:10014E00036228400302035FC0E0EB4A7044B980AB
:10015E0006D0E0FB02034EEF4E701CBD8008EBFF95
:10016E00EAFEE9FD80EBE98DF0A4FEE5F002020760
:10017E00E9CDF9EAFEEBFFEF89F0A4FCE5F0CE89BC
:10018E00F0A42EFFE435F0CD89F0A42DFEE435F079
:10019E008067EF4E7005BD80D780C3EF8BF0A4ACA7
:1001AE00F0EE8BF0A42CFCE435F0F8EF8AF0A42CE2
:1001BE00E5F038FCE433CB8DF0A42CFCE5F03BF8F5
:1001CE00EE8AF0A42CFCE5F038F8E433CF89F0A4E5
:1001DE002CFCE5F038CF3400CE89F0A42FFFE5F0EB
:1001EE003EFEE433C98DF0A42EFEE5F039CD8AF043
:1001FE00A42FFFE5F03EFEE43DFD33D0E0FB5007BB
:10020E000BBB000F020362EC2CFCEF33FFEE33FE50
:06021E00ED33FD02033A7E
:1002240074F8CC6480CCC86480C8F58204604FC381
:10023400EB9FF5F0EA9E42F0E99D42F0E89C45F020
:10024400603C501DE5825FFFE582D313CB5BCBF4AA
:100254002B5582FB50280ABA002409B900200880D3
:100264001DE5825BFBE582D313CF5FCFF4C3132F6D
:100274005582FF50090EBE00050DBD00010CC3EBF5
:100284009FF5F0EA9E42F0E99D42F0E89C45F0605B
:0902940007CC4820E701B3EC227D
:10029D00ED33EC33600A047003BD8004ECB2E7FC6F
:0102AD00222E
:1002AE0075F020800E75F010800575F0087D007ECB
:1002BE00007F003392D530D503120607EC33401081
:1002CE00EF33FFEE33FEED33FDEC33FCD5F0ED22D4
:0E02DE00E5F0247EA2D513CC92E7CDCEFF2210
:1002EC00EDD2E7CD33EC3392D524814006E4FFFE0A
:1002FC00FDFC22FCE4CFCECDCC24E0501174FF8069
:10030C00EDC3CC13CCCD13CDCE13CECF13CF047005
:07031C00F030D5DE020607F8
:1006BA00E5442430F8E6054422782D3007027830E4
:1006CA00E475F0011206600205AF2000EB7F2ED21E
:1006DA00008018EF540F2490D43440D4FF30040B18
:1006EA00EF24BFB41A0050032461FFE545600215E8
:1006FA00450548E5487002054730070D782DE47531
:10070A00F001120660EF0205F50211237403D20705
:10071A008003E4C207F5448B2D8A2E892FE4F54520
:10072A00F547F548E54560077F201206F580F5751F
:10073A0046FFC201C200C202C203C205C206C20803
:10074A001206C3FF700D3007057F00120706AF4877
:10075A00AE4722B4255FC2D5C2041206C3FF24D015
:10076A00B40A00501A75F00A784530D50508B6FF64
:10077A000106C6A426F620D5047002D20380D92425
:10078A00CFB41A00EF5004C2E5D2040209F3D20131
:10079A0080C6D20080C0D20280BCD2D580BAD2052F
:1007AA0080B47F201206F52002077401B545004087
:1007BA00F11206BAFF1206F502072ED208D20680F7
:1007CA00951206BAFB1206BAFA1206BAF94A4B7021
:1007DA000679EA7A0A7BFF20022EE545602A7E0026
:1007EA008E827583001205C860060EEE654670F0AB
:1007FA00C2D5EBC0E0EAC0E0E9C0E0EE120A53D08D
:10080A00E0F9D0E0FAD0E0FB1205AFFF60AAEBC036
:10081A00E0EAC0E0E9C0E01206F5D0E02401F9D030
:10082A00E03400FAD0E0FBE5460460DCD546D98026
:10083A0087D20280A2120A3660F7E54670010412D6
:10084A00036DA946600DE546600914F546120ADDF6
:10085A00EF60F3EA30E702F404C3995077EAF4252B
:10086A00460430E701E404F546800D120A3660C1F9
:10087A00EA0546254612036DEA7843F630E701E4B5
:10088A00254604D5460420050114120A53E4C0E0A3
:10089A00120ADD7843E6601320E70714F61206DD34
:1008AA00802204F6D0E014C0E07F001206DDE5469F
:1008BA0060071206D41546800B3005031206D4D001
:1008CA00E002072ED0E00480C5120A3660A0E54691
:1008DA000412036D7843EAF6E54620050260010436
:0508EA002404120A5372
:1008EF0074FF04C0E0120ADD1206DDE546200502A2
:1008FF0060031206D4D0E0B546E87F451206E778CC
:10090F0043E67F2B30E7047F2DF404C0E01206F599
:10091F00D0E075F00A84C0F01206DED0E01206DED9
:10092F0002072E791080027908C206C2088008D209
:10093F00D5790A8004790AC2D5E546047002F546D6
:10094F00E4FAFDFEFF1206BAFC7B08200113120623
:10095F00BAFD7B1030000A1206BAFE1206BAFF7BF0
:10096F0020EC3382D592D55013C3E43000069FFF9D
:10097F00E49EFEE42001039DFDE49CFCE4CBF8C261
:10098F0001EC700CCFCECDCCE824F8F870F38017C3
:10099F00C3EF33FFEE33FEED33FDEC33FCEB33FBF4
:1009AF00994002FB0FD8E9EB300105F8D0E0C448BD
:1009BF00B201C0E00AEC4D4E4F78207B0070C2EAC6
:1009CF00B5460040BCC0E0120A55D0F0D0E020017F
:1009DF0004C4C0E0C4B201C0F01206DED0F0D5F0FE
:1009EF00EB02072E12067007CB53093258079C4CA7
:1009FF0007984209364F093E44093E4907B143095A
:100A0F00445508754608D345083F470B0A5007A0C1
:100A1F002D07A42E07C72B07A82307C5200AF32AE3
:100A2F00076048000007BFE546B4FF03754606128E
:100A3F0006BAFC1206BAFD1206BAFE1206BAFF7803
:100A4F003C02039C790AA2D5200314300509B91082
:100A5F00020404B9080104A2D520060250010420A3
:100A6F0002689202B545005034C0E07F2030031970
:100A7F007F30A20272067205500F120AACC202C278
:100A8F0006C205C2087F30800F300503E9C0E012AF
:100A9F0006F5300503D0E0F9D0E0B545CC300517A9
:100AAF007F30B9100C1206F57F583004077F78801D
:100ABF0003B908031206F53002057F2D0206F57FF4
:100ACF00202008F87F2B2006F322920280CF7F0090
:100ADF00B407005005243CF8E6FF22286E756C6CB5
:100AEF002900D2011206BA3001F8C201784530D57B
:100AFF000108F60207602D504349581206BA240325
:100B0F00B405004001E4900B05931206E6743A1207
:0A0B1F0006E6D20375450402093210
:10032300E9D2E7C933E833F892D5EDD2E7CD33EC20
:0703330033FC5002B2D52299
:10033A00EC30E7100FBF000C0EBE00080DBD000424
:10034A000BEB6014A2D5EB13FCED92E7FD2274FFD0
:10035A00FCFDFEFF22E480F8A2D574FF13FC7D8029
:03036A00E480EF3D
:10036D00F920E72824F950037907E4F42402FB1857
:10037D00DBFDE624FB5014E9600DE4F618E604F607
:0F038D00B40A08E4F6D9F57401F60A22C2D522A3
:10039C00ED33EC3392D5FA602AB4FF33EDC2E77B30
:1003AC00FF60067A0379C1E4227A0379CA20D50466
:1003BC007A0379C5224E614E002B494E46002D49D9
:1003CC004E4600E47A08F608DAFC7B00740722E853
:1003DC00C0E0ECC0E0EDC0E0EEC0E0EFC0E0EA75DC
:1003EC00F010A4CAABF075F04DA42BFBE435F0FC77
:1003FC00EA2410FAEB34C5FBEC34D9FCEDC2E7FF70
:10040C0075F056A4F42411C5F0F434C58FF0A42A69
:10041C00E5F03BE43CF620E71412056FD0E0FFD08A
:10042C00E0FED0E0FDD0E0FC1204A28014F4041233
:10043C00056FD0E0FFD0E0FED0E0FDD0E0FC120173
:10044C001ED0E0F8E6FAEDD2E7CD33EC332482FB94
:10045C00E4C3CF33CFCE33CECD33CD33DBF37B07F9
:10046C0075F00A846004F6081B0AE5F0F6088FF0B4
:10047C00740AA4FFACF08EF0740AA42CFEACF050FD
:10048C00010C8DF0740AA42CFDE435F0F608DBDECB
:03049C00740722C0
:10049F00020362EC5D046005E8590470030203581F
:1004AF00120323580460F6EC4860F2EC7004FDFE72
:1004BF00FF22C860DB2481C85009C3986002500630
:1004CF0002035F9850CAF582E9294B4A7005AB8247
:1004DF0002034E75F0007C1A7880C3EF9BEE9AED05
:1004EF0099400DC3EF9BFFEE9AFEED99FDE842F0A8
:1004FF00DC23ACF0D0E0FFD0E0FED0E0FDAB8220FB
:10050F00E7101BEB60BAEC2CFCEF33FFEE33FEED84
:10051F0033FD02033AE803F830E705C0F075F00049
:10052F00EF2FFFEE33FEED33FD40B830E7C280AA68
:10053F003F8000004120000042C80000447A0000C4
:10054F00461C400047C35000497424004B18968046
:10055F004CBEBC205A0E1BCA6753C21C749DC5AE3D
:10056F00FB60065407601C232312059DEB54386073
:10057F000912058912059812011EECF8EDF9EEFA31
:10058F00EFCB22EB12059880F1543803241C900511
:10059F003FFE93FC0EEE93FD0EEE930ECE93FF22D5
:03000000020E41AC
:0C0E4100787FE4F6D8FD758150020E8821
:1005AF00BB010689828A83E0225002E722BBFE024A
:0905BF00E32289828A83E493227D
:1005C800BB010CE58229F582E5833AF583E02250E8
:1005D80006E92582F8E622BBFE06E92582F8E22232
:0D05E800E58229F582E5833AF583E493224C
:1005F500BB010689828A83F0225002F722BBFE01E5
:02060500F322DE
:0E060700C3E49FFFE49EFEE49DFDE49CFC2204
:10061500EB9FF5F0EA9E42F0E99D42F0E89C45F03B
:0106250022B2
:10062600BB010789828A830206A25005E9F8020601
:0A06360096BBFE05E9F80206AE22AD
:100640007401FF3395E0FEFDFC080808E6CF2FF6A5
:1006500018E6CE3EF618E6CD3DF618E6CC3CF6227E
:10066000FAE6FB0808E6F925F0F618E6CA3AF6229B
:10067000D083D082F8E4937012740193700DA3A319
:1006800093F8740193F5828883E47374029368602D
:06069000EFA3A3A380DF2D
:100E4D00020C21E493A3F8E493A34003F68001F28E
:100E5D0008DFF48029E493A3F85407240CC8C333A6
:100E6D00C4540F4420C8834004F456800146F6DF75
:100E7D00E4800B0102040810204080900FC8E47E2E
:100E8D00019360BCA3FF543F30E509541FFEE4936A
:100E9D00A360010ECF54C025E060A840B8E493A331
:100EAD00FAE493A3F8E493A3C8C582C8CAC583CA5C
:100EBD00F0A3C8C582C8CAC583CADFE9DEE780BE14
:010FF90000F7
:0C069600ECF608EDF608EEF608EFF62290
:0C06A200ECF0A3EDF0A3EEF0A3EFF022CB
:0C06AE00ECF208EDF208EEF208EFF22288
:00000001FF
